{
  "contractName": "SupplyChain",
  "abi": [
    {
      "anonymous": false,
      "inputs": [
        {
          "indexed": false,
          "internalType": "string",
          "name": "productId",
          "type": "string"
        },
        {
          "indexed": false,
          "internalType": "string",
          "name": "name",
          "type": "string"
        },
        {
          "indexed": false,
          "internalType": "uint256",
          "name": "quantity",
          "type": "uint256"
        }
      ],
      "name": "ProductAdded",
      "type": "event"
    },
    {
      "anonymous": false,
      "inputs": [
        {
          "indexed": false,
          "internalType": "string",
          "name": "productId",
          "type": "string"
        },
        {
          "indexed": false,
          "internalType": "string",
          "name": "status",
          "type": "string"
        }
      ],
      "name": "ProductStatusUpdated",
      "type": "event"
    },
    {
      "inputs": [
        {
          "internalType": "string",
          "name": "_productId",
          "type": "string"
        },
        {
          "internalType": "string",
          "name": "_name",
          "type": "string"
        },
        {
          "internalType": "uint256",
          "name": "_quantity",
          "type": "uint256"
        }
      ],
      "name": "addProduct",
      "outputs": [],
      "stateMutability": "nonpayable",
      "type": "function"
    },
    {
      "inputs": [],
      "name": "getProductCount",
      "outputs": [
        {
          "internalType": "uint256",
          "name": "",
          "type": "uint256"
        }
      ],
      "stateMutability": "view",
      "type": "function",
      "constant": true
    },
    {
      "inputs": [
        {
          "internalType": "uint256",
          "name": "_index",
          "type": "uint256"
        }
      ],
      "name": "getProductIdAtIndex",
      "outputs": [
        {
          "internalType": "string",
          "name": "",
          "type": "string"
        }
      ],
      "stateMutability": "view",
      "type": "function",
      "constant": true
    },
    {
      "inputs": [
        {
          "internalType": "string",
          "name": "_productId",
          "type": "string"
        },
        {
          "internalType": "string",
          "name": "_status",
          "type": "string"
        }
      ],
      "name": "updateProductStatus",
      "outputs": [],
      "stateMutability": "nonpayable",
      "type": "function"
    },
    {
      "inputs": [
        {
          "internalType": "string",
          "name": "_productId",
          "type": "string"
        }
      ],
      "name": "getProductDetails",
      "outputs": [
        {
          "components": [
            {
              "internalType": "string",
              "name": "productId",
              "type": "string"
            },
            {
              "internalType": "string",
              "name": "name",
              "type": "string"
            },
            {
              "internalType": "uint256",
              "name": "quantity",
              "type": "uint256"
            },
            {
              "internalType": "string[]",
              "name": "statusHistory",
              "type": "string[]"
            },
            {
              "internalType": "bool",
              "name": "exists",
              "type": "bool"
            }
          ],
          "internalType": "struct SupplyChain.Product",
          "name": "",
          "type": "tuple"
        }
      ],
      "stateMutability": "view",
      "type": "function",
      "constant": true
    },
    {
      "inputs": [
        {
          "internalType": "string",
          "name": "_productId",
          "type": "string"
        }
      ],
      "name": "getStatusHistory",
      "outputs": [
        {
          "internalType": "string[]",
          "name": "",
          "type": "string[]"
        }
      ],
      "stateMutability": "view",
      "type": "function",
      "constant": true
    }
  ],
  "bytecode": "0x608060405234801561001057600080fd5b5061147e806100206000396000f3fe608060405234801561001057600080fd5b50600436106100625760003560e01c8063024084c3146100675780630598714714610097578063198c59b0146100b35780634a348da9146100e35780635e33fad114610101578063f28ea1c114610131575b600080fd5b610081600480360381019061007c9190610c02565b61014d565b60405161008e9190611080565b60405180910390f35b6100b160048036038101906100ac9190610c43565b6102b5565b005b6100cd60048036038101906100c89190610c02565b6103bb565b6040516100da91906111a0565b60405180910390f35b6100eb610683565b6040516100f891906111c2565b60405180910390f35b61011b60048036038101906101169190610d2e565b61068d565b60405161012891906110a2565b60405180910390f35b61014b60048036038101906101469190610caf565b6107aa565b005b606060008260405161015f9190611069565b908152602001604051809103902060040160009054906101000a900460ff166101bd576040517f08c379a00000000000000000000000000000000000000000000000000000000081526004016101b490611140565b60405180910390fd5b6000826040516101cd9190611069565b9081526020016040518091039020600301805480602002602001604051908101604052809291908181526020016000905b828210156102aa57838290600052602060002001805461021d90611318565b80601f016020809104026020016040519081016040528092919081815260200182805461024990611318565b80156102965780601f1061026b57610100808354040283529160200191610296565b820191906000526020600020905b81548152906001019060200180831161027957829003601f168201915b5050505050815260200190600101906101fe565b505050509050919050565b6000826040516102c59190611069565b908152602001604051809103902060040160009054906101000a900460ff16610323576040517f08c379a000000000000000000000000000000000000000000000000000000000815260040161031a90611140565b60405180910390fd5b6000826040516103339190611069565b90815260200160405180910390206003018190806001815401808255809150506001900390600052602060002001600090919091909150908051906020019061037d9291906109ed565b507f62f7ff77fd29d365844e8ba8542fff45d3f22cada9bf007bdc1dab706bb8bc2482826040516103af9291906110c4565b60405180910390a15050565b6103c3610a73565b6000826040516103d39190611069565b908152602001604051809103902060040160009054906101000a900460ff16610431576040517f08c379a000000000000000000000000000000000000000000000000000000000815260040161042890611140565b60405180910390fd5b6000826040516104419190611069565b90815260200160405180910390206040518060a001604052908160008201805461046a90611318565b80601f016020809104026020016040519081016040528092919081815260200182805461049690611318565b80156104e35780601f106104b8576101008083540402835291602001916104e3565b820191906000526020600020905b8154815290600101906020018083116104c657829003601f168201915b505050505081526020016001820180546104fc90611318565b80601f016020809104026020016040519081016040528092919081815260200182805461052890611318565b80156105755780601f1061054a57610100808354040283529160200191610575565b820191906000526020600020905b81548152906001019060200180831161055857829003601f168201915b505050505081526020016002820154815260200160038201805480602002602001604051908101604052809291908181526020016000905b828210156106595783829060005260206000200180546105cc90611318565b80601f01602080910402602001604051908101604052809291908181526020018280546105f890611318565b80156106455780601f1061061a57610100808354040283529160200191610645565b820191906000526020600020905b81548152906001019060200180831161062857829003601f168201915b5050505050815260200190600101906105ad565b5050505081526020016004820160009054906101000a900460ff1615151515815250509050919050565b6000600154905090565b606060028054905082106106d6576040517f08c379a00000000000000000000000000000000000000000000000000000000081526004016106cd90611180565b60405180910390fd5b60028281548110610710577f4e487b7100000000000000000000000000000000000000000000000000000000600052603260045260246000fd5b90600052602060002001805461072590611318565b80601f016020809104026020016040519081016040528092919081815260200182805461075190611318565b801561079e5780601f106107735761010080835404028352916020019161079e565b820191906000526020600020905b81548152906001019060200180831161078157829003601f168201915b50505050509050919050565b6000836040516107ba9190611069565b908152602001604051809103902060040160009054906101000a900460ff1615610819576040517f08c379a000000000000000000000000000000000000000000000000000000000815260040161081090611160565b60405180910390fd5b6040518060a00160405280848152602001838152602001828152602001600067ffffffffffffffff811115610877577f4e487b7100000000000000000000000000000000000000000000000000000000600052604160045260246000fd5b6040519080825280602002602001820160405280156108aa57816020015b60608152602001906001900390816108955790505b508152602001600115158152506000846040516108c79190611069565b908152602001604051809103902060008201518160000190805190602001906108f19291906109ed565b50602082015181600101908051906020019061090e9291906109ed565b50604082015181600201556060820151816003019080519060200190610935929190610aa4565b5060808201518160040160006101000a81548160ff0219169083151502179055509050506001600081548092919061096c9061134a565b91905055506002839080600181540180825580915050600190039060005260206000200160009091909190915090805190602001906109ac9291906109ed565b507fcbebef04e1d7de535a91cb84796482718220565630fdbc1954fbf9d97f0434538383836040516109e0939291906110fb565b60405180910390a1505050565b8280546109f990611318565b90600052602060002090601f016020900481019282610a1b5760008555610a62565b82601f10610a3457805160ff1916838001178555610a62565b82800160010185558215610a62579182015b82811115610a61578251825591602001919060010190610a46565b5b509050610a6f9190610b04565b5090565b6040518060a00160405280606081526020016060815260200160008152602001606081526020016000151581525090565b828054828255906000526020600020908101928215610af3579160200282015b82811115610af2578251829080519060200190610ae29291906109ed565b5091602001919060010190610ac4565b5b509050610b009190610b21565b5090565b5b80821115610b1d576000816000905550600101610b05565b5090565b5b80821115610b415760008181610b389190610b45565b50600101610b22565b5090565b508054610b5190611318565b6000825580601f10610b635750610b82565b601f016020900490600052602060002090810190610b819190610b04565b5b50565b6000610b98610b938461120e565b6111dd565b905082815260208101848484011115610bb057600080fd5b610bbb8482856112d6565b509392505050565b600082601f830112610bd457600080fd5b8135610be4848260208601610b85565b91505092915050565b600081359050610bfc81611431565b92915050565b600060208284031215610c1457600080fd5b600082013567ffffffffffffffff811115610c2e57600080fd5b610c3a84828501610bc3565b91505092915050565b60008060408385031215610c5657600080fd5b600083013567ffffffffffffffff811115610c7057600080fd5b610c7c85828601610bc3565b925050602083013567ffffffffffffffff811115610c9957600080fd5b610ca585828601610bc3565b9150509250929050565b600080600060608486031215610cc457600080fd5b600084013567ffffffffffffffff811115610cde57600080fd5b610cea86828701610bc3565b935050602084013567ffffffffffffffff811115610d0757600080fd5b610d1386828701610bc3565b9250506040610d2486828701610bed565b9150509250925092565b600060208284031215610d4057600080fd5b6000610d4e84828501610bed565b91505092915050565b6000610d638383610e64565b905092915050565b6000610d768261124e565b610d808185611271565b935083602082028501610d928561123e565b8060005b85811015610dce5784840389528151610daf8582610d57565b9450610dba83611264565b925060208a01995050600181019050610d96565b50829750879550505050505092915050565b6000610deb8261124e565b610df58185611282565b935083602082028501610e078561123e565b8060005b85811015610e435784840389528151610e248582610d57565b9450610e2f83611264565b925060208a01995050600181019050610e0b565b50829750879550505050505092915050565b610e5e816112c0565b82525050565b6000610e6f82611259565b610e798185611293565b9350610e898185602086016112e5565b610e9281611420565b840191505092915050565b6000610ea882611259565b610eb281856112a4565b9350610ec28185602086016112e5565b610ecb81611420565b840191505092915050565b6000610ee182611259565b610eeb81856112b5565b9350610efb8185602086016112e5565b80840191505092915050565b6000610f146017836112a4565b91507f50726f6475637420646f6573206e6f742065786973742e0000000000000000006000830152602082019050919050565b6000610f546017836112a4565b91507f50726f6475637420616c7265616479206578697374732e0000000000000000006000830152602082019050919050565b6000610f946014836112a4565b91507f496e646578206f7574206f6620626f756e64732e0000000000000000000000006000830152602082019050919050565b600060a0830160008301518482036000860152610fe48282610e64565b91505060208301518482036020860152610ffe8282610e64565b9150506040830151611013604086018261104b565b506060830151848203606086015261102b8282610d6b565b91505060808301516110406080860182610e55565b508091505092915050565b611054816112cc565b82525050565b611063816112cc565b82525050565b60006110758284610ed6565b915081905092915050565b6000602082019050818103600083015261109a8184610de0565b905092915050565b600060208201905081810360008301526110bc8184610e9d565b905092915050565b600060408201905081810360008301526110de8185610e9d565b905081810360208301526110f28184610e9d565b90509392505050565b600060608201905081810360008301526111158186610e9d565b905081810360208301526111298185610e9d565b9050611138604083018461105a565b949350505050565b6000602082019050818103600083015261115981610f07565b9050919050565b6000602082019050818103600083015261117981610f47565b9050919050565b6000602082019050818103600083015261119981610f87565b9050919050565b600060208201905081810360008301526111ba8184610fc7565b905092915050565b60006020820190506111d7600083018461105a565b92915050565b6000604051905081810181811067ffffffffffffffff82111715611204576112036113f1565b5b8060405250919050565b600067ffffffffffffffff821115611229576112286113f1565b5b601f19601f8301169050602081019050919050565b6000819050602082019050919050565b600081519050919050565b600081519050919050565b6000602082019050919050565b600082825260208201905092915050565b600082825260208201905092915050565b600082825260208201905092915050565b600082825260208201905092915050565b600081905092915050565b60008115159050919050565b6000819050919050565b82818337600083830152505050565b60005b838110156113035780820151818401526020810190506112e8565b83811115611312576000848401525b50505050565b6000600282049050600182168061133057607f821691505b60208210811415611344576113436113c2565b5b50919050565b6000611355826112cc565b91507fffffffffffffffffffffffffffffffffffffffffffffffffffffffffffffffff82141561138857611387611393565b5b600182019050919050565b7f4e487b7100000000000000000000000000000000000000000000000000000000600052601160045260246000fd5b7f4e487b7100000000000000000000000000000000000000000000000000000000600052602260045260246000fd5b7f4e487b7100000000000000000000000000000000000000000000000000000000600052604160045260246000fd5b6000601f19601f8301169050919050565b61143a816112cc565b811461144557600080fd5b5056fea2646970667358221220af6a95af25df0e44696248a9518fb84eb963de5c9c4a42a335956afc368aba4864736f6c63430008000033",
  "immutableReferences": {},
  "source": "// SPDX-License-Identifier: MIT\r\npragma solidity ^0.8.0;\r\n\r\ncontract SupplyChain {\r\n    // Structure to hold product details\r\n    struct Product {\r\n        string productId;\r\n        string name;\r\n        uint quantity;\r\n        string[] statusHistory; // Array to store status updates\r\n        bool exists; // Flag to check if the product exists\r\n    }\r\n\r\n    // Mapping to store products by their IDs (using string)\r\n    mapping(string => Product) private products;\r\n\r\n    // Count of total products\r\n    uint private productCount; // New state variable to count products\r\n\r\n    // Array to store all product IDs\r\n    string[] private productIds; // New array to store product IDs\r\n\r\n    // Event emitted when a product is added\r\n    event ProductAdded(string productId, string name, uint quantity);\r\n\r\n    // Event emitted when a product's status is updated\r\n    event ProductStatusUpdated(string productId, string status);\r\n\r\n    // Function for farmers to add a new batch of produce\r\n    function addProduct(string memory _productId, string memory _name, uint _quantity) public {\r\n        require(!products[_productId].exists, \"Product already exists.\");\r\n\r\n        // Initialize the product\r\n        products[_productId] = Product({\r\n            productId: _productId,\r\n            name: _name,\r\n            quantity: _quantity,\r\n            statusHistory: new string[](0) , // Initialize empty status history\r\n            exists: true\r\n        });\r\n\r\n        // Increment the product count\r\n        productCount++;\r\n\r\n        // Store the product ID\r\n        productIds.push(_productId); // Store product ID in the array\r\n\r\n        emit ProductAdded(_productId, _name, _quantity);\r\n    }\r\n\r\n    // Function to get the total product count\r\n    function getProductCount() public view returns (uint) {\r\n        return productCount;\r\n    }\r\n\r\n    // Function to get product ID at a specific index\r\n    function getProductIdAtIndex(uint _index) public view returns (string memory) {\r\n        require(_index < productIds.length, \"Index out of bounds.\");\r\n        return productIds[_index];\r\n    }\r\n\r\n    // Function for distributors/retailers to update product status\r\n    function updateProductStatus(string memory _productId, string memory _status) public {\r\n        require(products[_productId].exists, \"Product does not exist.\");\r\n\r\n        // Add the status to the product's history\r\n        products[_productId].statusHistory.push(_status);\r\n\r\n        emit ProductStatusUpdated(_productId, _status);\r\n    }\r\n\r\n    // Function for consumers to query product details\r\n    function getProductDetails(string memory _productId) public view returns (Product memory) {\r\n        require(products[_productId].exists, \"Product does not exist.\");\r\n        return products[_productId];\r\n    }\r\n\r\n    // Function to get product status history\r\n    function getStatusHistory(string memory _productId) public view returns (string[] memory) {\r\n        require(products[_productId].exists, \"Product does not exist.\");\r\n        return products[_productId].statusHistory;\r\n    }\r\n}\r\n",
  "sourcePath": "C:\\Users\\Aaryan\\OneDrive\\Desktop\\WebDev\\Blockchain\\SCM\\contracts\\SupplyChain.sol",
  "compiler": {
    "name": "solc",
    "version": "0.8.0+commit.c7dfd78e.Emscripten.clang"
  },
  "schemaVersion": "3.4.16",
  "updatedAt": "2024-10-03T16:53:49.599Z",
  "networkType": "ethereum",
  "devdoc": {
    "kind": "dev",
    "methods": {},
    "version": 1
  },
  "userdoc": {
    "kind": "user",
    "methods": {},
    "version": 1
  }
}